{
  "contractName": "EmojiCoin",
  "abi": [
    {
      "constant": false,
      "inputs": [
        {
          "name": "receiver",
          "type": "address"
        },
        {
          "name": "index",
          "type": "uint256"
        },
        {
          "name": "amount",
          "type": "uint256"
        }
      ],
      "name": "sendEmojis",
      "outputs": [
        {
          "name": "",
          "type": "bool"
        }
      ],
      "payable": false,
      "stateMutability": "nonpayable",
      "type": "function"
    },
    {
      "constant": true,
      "inputs": [
        {
          "name": "",
          "type": "uint256"
        }
      ],
      "name": "indexes",
      "outputs": [
        {
          "name": "",
          "type": "uint256"
        }
      ],
      "payable": false,
      "stateMutability": "view",
      "type": "function"
    },
    {
      "constant": true,
      "inputs": [
        {
          "name": "account",
          "type": "address"
        },
        {
          "name": "index",
          "type": "uint256"
        }
      ],
      "name": "getEmojiBalance",
      "outputs": [
        {
          "name": "",
          "type": "uint256"
        }
      ],
      "payable": false,
      "stateMutability": "view",
      "type": "function"
    },
    {
      "constant": true,
      "inputs": [
        {
          "name": "",
          "type": "uint256"
        },
        {
          "name": "",
          "type": "address"
        }
      ],
      "name": "emojis",
      "outputs": [
        {
          "name": "",
          "type": "uint256"
        }
      ],
      "payable": false,
      "stateMutability": "view",
      "type": "function"
    },
    {
      "constant": true,
      "inputs": [
        {
          "name": "index",
          "type": "uint256"
        }
      ],
      "name": "getEmojiSupply",
      "outputs": [
        {
          "name": "",
          "type": "uint256"
        }
      ],
      "payable": false,
      "stateMutability": "view",
      "type": "function"
    },
    {
      "constant": false,
      "inputs": [
        {
          "name": "index",
          "type": "uint256"
        },
        {
          "name": "supply",
          "type": "uint256"
        }
      ],
      "name": "createEmoji",
      "outputs": [
        {
          "name": "",
          "type": "bool"
        }
      ],
      "payable": false,
      "stateMutability": "nonpayable",
      "type": "function"
    },
    {
      "inputs": [],
      "payable": false,
      "stateMutability": "nonpayable",
      "type": "constructor"
    }
  ],
  "bytecode": "0x6060604052341561000f57600080fd5b6104e58061001e6000396000f300606060405260043610610078576000357c0100000000000000000000000000000000000000000000000000000000900463ffffffff16806352382ad41461007d57806392f8eb94146100e0578063c9c70fea14610117578063cac9e4331461016d578063f6871f68146101c3578063fd3a4594146101fa575b600080fd5b341561008857600080fd5b6100c6600480803573ffffffffffffffffffffffffffffffffffffffff1690602001909190803590602001909190803590602001909190505061023e565b604051808215151515815260200191505060405180910390f35b34156100eb57600080fd5b6101016004808035906020019091905050610369565b6040518082815260200191505060405180910390f35b341561012257600080fd5b610157600480803573ffffffffffffffffffffffffffffffffffffffff16906020019091908035906020019091905050610381565b6040518082815260200191505060405180910390f35b341561017857600080fd5b6101ad600480803590602001909190803573ffffffffffffffffffffffffffffffffffffffff169060200190919050506103dc565b6040518082815260200191505060405180910390f35b34156101ce57600080fd5b6101e46004808035906020019091905050610401565b6040518082815260200191505060405180910390f35b341561020557600080fd5b610224600480803590602001909190803590602001909190505061041d565b604051808215151515815260200191505060405180910390f35b6000816001600085815260200190815260200160002060003373ffffffffffffffffffffffffffffffffffffffff1673ffffffffffffffffffffffffffffffffffffffff1681526020019081526020016000205410156102a15760009050610362565b816001600085815260200190815260200160002060003373ffffffffffffffffffffffffffffffffffffffff1673ffffffffffffffffffffffffffffffffffffffff16815260200190815260200160002060008282540392505081905550816001600085815260200190815260200160002060008673ffffffffffffffffffffffffffffffffffffffff1673ffffffffffffffffffffffffffffffffffffffff16815260200190815260200160002060008282540192505081905550600190505b9392505050565b60006020528060005260406000206000915090505481565b60006001600083815260200190815260200160002060008473ffffffffffffffffffffffffffffffffffffffff1673ffffffffffffffffffffffffffffffffffffffff16815260200190815260200160002054905092915050565b6001602052816000526040600020602052806000526040600020600091509150505481565b6000806000838152602001908152602001600020549050919050565b60008060008085815260200190815260200160002054111561044257600090506104b3565b8160008085815260200190815260200160002081905550816001600085815260200190815260200160002060003373ffffffffffffffffffffffffffffffffffffffff1673ffffffffffffffffffffffffffffffffffffffff16815260200190815260200160002081905550600190505b929150505600a165627a7a72305820914dcbd885ef1eea8d3350779cbd88dad4da12b10ca0aba7fb881aeba2ade2b40029",
  "source": "pragma solidity ^0.4.17;\n\ncontract EmojiCoin {\n\n\tmapping (uint => uint) public indexes;\n\tmapping (uint => mapping (address => uint)) public emojis;\n\n\tfunction EmojiCoin() public {\n\n\t}\n\n\tfunction createEmoji(uint index, uint supply) public returns(bool) {\n\t\tif (indexes[index] > 0) return false;\n\t\tindexes[index] = supply;\n\t\temojis[index][msg.sender] = supply;\n\t\treturn true;\n\t}\n\n\tfunction sendEmojis(address receiver, uint index, uint amount) public returns(bool) {\n\t\tif (emojis[index][msg.sender] < amount) return false;\n\n\t\temojis[index][msg.sender] -= amount;\n\t\temojis[index][receiver] += amount;\n\n\t\treturn true;\n\t}\n\n\tfunction getEmojiSupply(uint index) public constant returns(uint) {\n\t\treturn indexes[index];\n\t}\n\n\tfunction getEmojiBalance(address account, uint index) public constant returns(uint) {\n\t\treturn emojis[index][account];\n\t}\n}\n",
  "sourcePath": "/Users/chriscates/Projects/EmojiCoin/contracts/EmojiCoin.sol",
  "compiler": {
    "name": "solc",
    "version": "0.4.18+commit.9cf6e910.Emscripten.clang"
  },
  "schemaVersion": "1.0.1",
  "updatedAt": "2018-01-10T04:11:29.513Z"
}